{
  "contractName": "stateChannel",
  "abi": [
    {
      "constant": true,
      "inputs": [],
      "name": "count",
      "outputs": [
        {
          "name": "",
          "type": "uint256"
        }
      ],
      "payable": false,
      "stateMutability": "view",
      "type": "function",
      "signature": "0x06661abd"
    },
    {
      "payable": true,
      "stateMutability": "payable",
      "type": "fallback"
    },
    {
      "anonymous": false,
      "inputs": [
        {
          "indexed": false,
          "name": "to",
          "type": "address"
        },
        {
          "indexed": false,
          "name": "amount",
          "type": "uint256"
        }
      ],
      "name": "LogMoneySent",
      "type": "event",
      "signature": "0xf90c5938b879ca049653e0bb7ddb992b063551223b006661f26ec9d1a0ed229c"
    },
    {
      "constant": false,
      "inputs": [
        {
          "name": "to",
          "type": "address"
        },
        {
          "name": "amount",
          "type": "uint256"
        },
        {
          "name": "rA",
          "type": "bytes32"
        },
        {
          "name": "sA",
          "type": "bytes32"
        },
        {
          "name": "vA",
          "type": "uint8"
        },
        {
          "name": "userA",
          "type": "address"
        },
        {
          "name": "userB",
          "type": "address"
        },
        {
          "name": "rB",
          "type": "bytes32"
        },
        {
          "name": "sB",
          "type": "bytes32"
        },
        {
          "name": "vB",
          "type": "uint8"
        }
      ],
      "name": "sendMoney",
      "outputs": [],
      "payable": true,
      "stateMutability": "payable",
      "type": "function",
      "signature": "0x7d5b80f1"
    },
    {
      "constant": true,
      "inputs": [
        {
          "name": "message",
          "type": "bytes32"
        },
        {
          "name": "r",
          "type": "bytes32"
        },
        {
          "name": "s",
          "type": "bytes32"
        },
        {
          "name": "v",
          "type": "uint8"
        }
      ],
      "name": "recover",
      "outputs": [
        {
          "name": "",
          "type": "address"
        }
      ],
      "payable": false,
      "stateMutability": "pure",
      "type": "function",
      "signature": "0x388f2c39"
    },
    {
      "constant": true,
      "inputs": [
        {
          "name": "to",
          "type": "address"
        },
        {
          "name": "amount",
          "type": "uint256"
        }
      ],
      "name": "hashPermissionMessage",
      "outputs": [
        {
          "name": "",
          "type": "bytes32"
        }
      ],
      "payable": false,
      "stateMutability": "view",
      "type": "function",
      "signature": "0xbea03da4"
    }
  ],
  "bytecode": "0x608060405234801561001057600080fd5b50610679806100206000396000f300608060405260043610610062576000357c0100000000000000000000000000000000000000000000000000000000900463ffffffff16806306661abd14610064578063388f2c391461008f5780637d5b80f114610129578063bea03da4146101fb575b005b34801561007057600080fd5b50610079610264565b6040518082815260200191505060405180910390f35b34801561009b57600080fd5b506100e7600480360381019080803560001916906020019092919080356000191690602001909291908035600019169060200190929190803560ff16906020019092919050505061026a565b604051808273ffffffffffffffffffffffffffffffffffffffff1673ffffffffffffffffffffffffffffffffffffffff16815260200191505060405180910390f35b6101f9600480360381019080803573ffffffffffffffffffffffffffffffffffffffff1690602001909291908035906020019092919080356000191690602001909291908035600019169060200190929190803560ff169060200190929190803573ffffffffffffffffffffffffffffffffffffffff169060200190929190803573ffffffffffffffffffffffffffffffffffffffff16906020019092919080356000191690602001909291908035600019169060200190929190803560ff1690602001909291905050506103aa565b005b34801561020757600080fd5b50610246600480360381019080803573ffffffffffffffffffffffffffffffffffffffff1690602001909291908035906020019092919050505061059d565b60405180826000191660001916815260200191505060405180910390f35b60005481565b6000606060006040805190810160405280601c81526020017f19457468657265756d205369676e6564204d6573736167653a0a333200000000815250915081876040518083805190602001908083835b6020831015156102df57805182526020820191506020810190506020830392506102ba565b6001836020036101000a03801982511681845116808217855250505050505090500182600019166000191681526020019250505060405180910390209050600181858888604051600081526020016040526040518085600019166000191681526020018460ff1660ff1681526020018360001916600019168152602001826000191660001916815260200194505050505060206040516020810390808403906000865af1158015610394573d6000803e3d6000fd5b5050506020604051035192505050949350505050565b6000308b8b600054604051808573ffffffffffffffffffffffffffffffffffffffff1673ffffffffffffffffffffffffffffffffffffffff166c010000000000000000000000000281526014018473ffffffffffffffffffffffffffffffffffffffff1673ffffffffffffffffffffffffffffffffffffffff166c01000000000000000000000000028152601401838152602001828152602001945050505050604051809103902090508573ffffffffffffffffffffffffffffffffffffffff16610477828b8b8b61026a565b73ffffffffffffffffffffffffffffffffffffffff1614151561049957600080fd5b8473ffffffffffffffffffffffffffffffffffffffff166104bc8286868661026a565b73ffffffffffffffffffffffffffffffffffffffff161415156104de57600080fd5b8a73ffffffffffffffffffffffffffffffffffffffff166108fc349081150290604051600060405180830381858888f193505050505060008081548092919060010191905055507ff90c5938b879ca049653e0bb7ddb992b063551223b006661f26ec9d1a0ed229c8b8b604051808373ffffffffffffffffffffffffffffffffffffffff1673ffffffffffffffffffffffffffffffffffffffff1681526020018281526020019250505060405180910390a15050505050505050505050565b6000308383600054604051808573ffffffffffffffffffffffffffffffffffffffff1673ffffffffffffffffffffffffffffffffffffffff166c010000000000000000000000000281526014018473ffffffffffffffffffffffffffffffffffffffff1673ffffffffffffffffffffffffffffffffffffffff166c0100000000000000000000000002815260140183815260200182815260200194505050505060405180910390209050929150505600a165627a7a72305820fede0efc8fedf92aa23ccd78806fd6e7e6f0d0a452641bb067fb243b9222d58c0029",
  "source": "\r\npragma solidity ^0.4.18;\r\n\r\ncontract stateChannel {\r\n    event LogMoneySent(address to, uint amount);\r\n     \r\n   uint public count;\r\n\r\n   \r\n    function() public payable{}\r\n       \r\n    function sendMoney(address to, uint amount,\r\n        bytes32 rA, bytes32 sA, uint8 vA,\r\n        address userA,\r\n        address userB,\r\n        bytes32 rB, bytes32 sB, uint8 vB)\r\n        public payable \r\n    {\r\n        bytes32 message = keccak256(this, to, amount, count);\r\n        require(recover(message, rA, sA, vA) == userA);\r\n        require(recover(message, rB, sB, vB) == userB);\r\n        \r\n        to.send(msg.value);\r\n        count++;\r\n        LogMoneySent(to, amount);\r\n    }\r\n\r\n   \r\n    \r\n    function recover(bytes32 message, bytes32 r, bytes32 s, uint8 v)\r\n        public pure returns (address)\r\n    {\r\n        bytes memory prefix = \"\\x19Ethereum Signed Message:\\n32\";\r\n        bytes32 prefixedHash = keccak256(prefix, message);\r\n        return ecrecover(prefixedHash, v, r, s);\r\n    }\r\n\r\n    function hashPermissionMessage(address to, uint amount)\r\n        public view returns (bytes32)\r\n    {\r\n        return keccak256(this, to, amount, count);\r\n    }\r\n}",
  "sourcePath": "D:/smartContract/contracts/stateChannel.sol",
  "compiler": {
    "name": "solc",
    "version": "0.4.22+commit.4cb486ee.Emscripten.clang"
  },
  "schemaVersion": "3.0.1",
  "updatedAt": "2020-11-10T23:31:51.315Z",
  "devdoc": {
    "methods": {}
  },
  "userdoc": {
    "methods": {}
  }
}